:100000000C942A001895000018950000189500001F
:10001000189500001895000018950000189500002C
:10002000189500001895000018950000189500001C
:10003000189500001895000018950000189500000C
:1000400018950000189500001895000018950000FC
:10005000189500008FE58DBFC8E3E0E24E2E84E0E6
:100060008EBFD4E0F4E05F2EA89584B7082E877F7A
:1000700084BF88E1992781BD91BDEEEFF3E0A0E652
:10008000B0E088278D933197E9F70E94CB00662472
:1000900085E886B980E487B9379A8CE00E94E90048
:1000A00007B1007E07B90E94F401A0E6B0E08D938D
:1000B0009C93A0E6B0E00D911C9145E050E00E94B9
:1000C000EA01A2E6B0E00D931C93E8E6F6E00E9498
:1000D0002703E2E6F0E0D190E0808FEFE7FE88278B
:1000E000F82E082F0E9499020E94D102EDE0F0E064
:1000F000A4E6B0E00E945B02A8E0B4E0AF93BF9337
:10010000E4E6F0E00E946F020E94070111E001E0C6
:10011000BF91AF910E940E02E8E0F4E0A8E0B4E0E5
:100120000E9456020E94BC00ECE6F6E00E94C40069
:10013000F894FFCF05D00E94EA0100FC0CD008958E
:100140000024E89457FF02C009D0689400F80BD04F
:1001500010F80124089502D009D0089550954095D3
:100160004F5F5F4F0895E89417FF0895009510952D
:100170000F5F1F4F68940895A8E0B4E08D91882325
:1001800011F019D0FBCF08950E94FD01802D11F0D0
:1001900012D0FACF08958AEF90E00E94F8008FEF16
:1001A00084BB899A889A88E314D013D08EE011D04A
:1001B00086E00FD00895909A85BB919AEF93FF93B4
:1001C000E0E6F0E00E94EC00FF91EF9191980DD0F5
:1001D00008959098F1CF08953197F1F708956894B4
:1001E00062F80895E89462F8089581E090E000C014
:1001F000EF93FF93EE27E82BE92B31F0E8EEF3E0E5
:100200003197F1F70197D1F7FF91EF9108958DE2C2
:1002100007FD8D938F2D881F802F881F8F57082FE4
:100220006894F7F8802F87FF15C080958395082F75
:1002300080E38D938EE28D93802F815228F080E3AE
:100240008D9399279C93089544270A95802F09F14F
:1002500096D01FC0805230F09EE49D9381E48D9330
:100260009D93EFCF4427DF92EF92FF920F938FE1A0
:10027000801B11F0082F83D089D09EE29D930F91AF
:10028000FF90EF90DF9044270395003209F4D7CF19
:100290002BD03F93EEE1F3E038E12F2D1E2D0D2DF5
:1002A000FF24EE24DD244427000F111F221FA8F491
:1002B0002F923F920E94FD01102C0E94FD01202CE4
:1002C0000E94FD01302C0E94FD013197410DD21C8E
:1002D000E31CF01C3F902F9001C0339631963A9565
:1002E00019F73F9107D0AFCFDD0CEE1CFF1C0A952C
:1002F000D9F70895002719E058D08F93802B11F07B
:10030000039501C08F911A95B9F7802F882309F4BE
:1003100096CF8F91805D8D930A95D9F792CF006526
:10032000CD1D80B2E60E40597307A0ACB90350D67C
:10033000DC01286BEE0094357700CA9A3B0065CD4E
:100340001D00B2E60E0059730700ACB90300D6DCFD
:1003500001006BEE0000357700009A3B0000CD1DD8
:100360000000E60E000073070000B9030000DC0186
:100370000000EE000000770000003B000000F69453
:10038000E794D79447950A95D1F7089500270DD0A3
:100390008F9303958F2D8E298D29842BC1F78F91F3
:1003A000805D8D930A95D9F74CCF1F930F9300274B
:1003B00010E2440FDD1CEE1CFF1C001F802F9AE092
:1003C000890B10F0082F43951A9599F7802F0F91FC
:1003D0001F9108950F92B801469F8001479F100D0D
:1003E000569F100D0F900895369A3699FECF369A83
:1003F0003699FECF84B195B10895C8953196002005
:10040000089599278D9193958823E1F793951196F7
:100410008C9311978E919A95D1F70895EA2FFB2F1F
:1004200000244C918D9103948E32E1F711248D912B
:1004300013948823E1F71A94101640F41197202F93
:100440002119239580E38D932A95E9F7113039F529
:100450009927AE2FBF2FA00DB91FA00FB91F8C91E8
:100460009C93853308F421C031E08E918E32E9F3FC
:100470008D3241F0830F8A3319F480E331E001C0FB
:1004800033278C93AE1789F7332341F0AE2FBF2F5C
:10049000B8DF81E34D3209F43196808308958827CF
:1004A000E00DF81FE00FF81F8083089581918D9370
:1004B0008823E1F7089594E081918D939A95E1F76F
:1004C0000895B7FE089590E8B91611F4D0FE089586
:1004D0009FEFD91AE90AF90A09F403950895D19012
:1004E000E190F190019108952191319141915191C3
:1004F0000895502F2D2D3E2D4F2D612F0895652FDE
:1005000090E8440F551F5927990F47956078102F91
:1005100090E8FF0C001F0927990FF7941078003816
:100520000895FF0C90E89027110F9795F794092FE5
:100530000895102FBD2CDE2CEF2CF02E11234AF441
:10054000B094D094E094F0949FEFB91AD90AE90AD4
:10055000F90A0EE1FF2039F4FE2CED2CDB2CBB2434
:100560000850C2F752C032F00A95BB0CDD1CEE1CDD
:10057000FF1CF9CFA6DFD5CF2DEC3CEC4CEC5DE3B6
:1005800066270FC0ACDFB5DFDD24EE2490E8F92E3E
:100590000FE307C0A9DF05C02227332740E251E45B
:1005A0006627552351F1002381F1A9DF71F1162748
:1005B000005850580894050B18F407FD03C025C0D7
:1005C00007FD23C0469537952795F694E794D79471
:1005D00022D0FF202AF0DD0CEE1CFF1C015073F02E
:1005E0009D2D969548F0DD203AF4EE202AF491E016
:1005F000D90E9927E91EF91E94CF07C09FE7092F4E
:10060000F92A9FEFD92EE92E0895DD24EE24FF2448
:100610000027112708959F929924AA24BB2488E1DA
:10062000D216E306F40628F0D21AE30AF40A089474
:1006300001C08894991CAA1CBB1CDD0CEE1CFF1C7D
:100640008A9571F7D92CEA2CFB2C9F9008950E9473
:10065000FD01202D0E94FD01302D0E94FD01402D45
:0E0660000E94FD01502D08950000204143002E
:00000001FF
